{
	"contracts/MyContract.sol": {
		"MyContract": {
			"abi": [
				{
					"inputs": [],
					"stateMutability": "nonpayable",
					"type": "constructor"
				},
				{
					"inputs": [
						{
							"internalType": "uint256",
							"name": "_number",
							"type": "uint256"
						}
					],
					"name": "addNumber",
					"outputs": [],
					"stateMutability": "nonpayable",
					"type": "function"
				},
				{
					"inputs": [],
					"name": "countEvenNumbers",
					"outputs": [
						{
							"internalType": "uint256",
							"name": "",
							"type": "uint256"
						}
					],
					"stateMutability": "view",
					"type": "function"
				},
				{
					"inputs": [
						{
							"internalType": "uint256",
							"name": "_number",
							"type": "uint256"
						}
					],
					"name": "isEvenNumber",
					"outputs": [
						{
							"internalType": "bool",
							"name": "",
							"type": "bool"
						}
					],
					"stateMutability": "pure",
					"type": "function"
				},
				{
					"inputs": [],
					"name": "isOwner",
					"outputs": [
						{
							"internalType": "bool",
							"name": "",
							"type": "bool"
						}
					],
					"stateMutability": "view",
					"type": "function"
				},
				{
					"inputs": [
						{
							"internalType": "uint256",
							"name": "",
							"type": "uint256"
						}
					],
					"name": "numbers",
					"outputs": [
						{
							"internalType": "uint256",
							"name": "",
							"type": "uint256"
						}
					],
					"stateMutability": "view",
					"type": "function"
				},
				{
					"inputs": [],
					"name": "owner",
					"outputs": [
						{
							"internalType": "address",
							"name": "",
							"type": "address"
						}
					],
					"stateMutability": "view",
					"type": "function"
				}
			],
			"devdoc": {
				"kind": "dev",
				"methods": {},
				"version": 1
			},
			"evm": {
				"assembly": "    /* \"contracts/MyContract.sol\":59:826  contract MyContract {... */\n  mstore(0x40, 0x80)\n    /* \"contracts/MyContract.sol\":85:129  uint[] public numbers = [1,2,3,5,6,7,8,9,10] */\n  mload(0x40)\n  dup1\n  0x0120\n  add\n  0x40\n  mstore\n  dup1\n    /* \"contracts/MyContract.sol\":110:111  1 */\n  0x01\n    /* \"contracts/MyContract.sol\":85:129  uint[] public numbers = [1,2,3,5,6,7,8,9,10] */\n  0xff\n  and\n  dup2\n  mstore\n  0x20\n  add\n    /* \"contracts/MyContract.sol\":112:113  2 */\n  0x02\n    /* \"contracts/MyContract.sol\":85:129  uint[] public numbers = [1,2,3,5,6,7,8,9,10] */\n  0xff\n  and\n  dup2\n  mstore\n  0x20\n  add\n    /* \"contracts/MyContract.sol\":114:115  3 */\n  0x03\n    /* \"contracts/MyContract.sol\":85:129  uint[] public numbers = [1,2,3,5,6,7,8,9,10] */\n  0xff\n  and\n  dup2\n  mstore\n  0x20\n  add\n    /* \"contracts/MyContract.sol\":116:117  5 */\n  0x05\n    /* \"contracts/MyContract.sol\":85:129  uint[] public numbers = [1,2,3,5,6,7,8,9,10] */\n  0xff\n  and\n  dup2\n  mstore\n  0x20\n  add\n    /* \"contracts/MyContract.sol\":118:119  6 */\n  0x06\n    /* \"contracts/MyContract.sol\":85:129  uint[] public numbers = [1,2,3,5,6,7,8,9,10] */\n  0xff\n  and\n  dup2\n  mstore\n  0x20\n  add\n    /* \"contracts/MyContract.sol\":120:121  7 */\n  0x07\n    /* \"contracts/MyContract.sol\":85:129  uint[] public numbers = [1,2,3,5,6,7,8,9,10] */\n  0xff\n  and\n  dup2\n  mstore\n  0x20\n  add\n    /* \"contracts/MyContract.sol\":122:123  8 */\n  0x08\n    /* \"contracts/MyContract.sol\":85:129  uint[] public numbers = [1,2,3,5,6,7,8,9,10] */\n  0xff\n  and\n  dup2\n  mstore\n  0x20\n  add\n    /* \"contracts/MyContract.sol\":124:125  9 */\n  0x09\n    /* \"contracts/MyContract.sol\":85:129  uint[] public numbers = [1,2,3,5,6,7,8,9,10] */\n  0xff\n  and\n  dup2\n  mstore\n  0x20\n  add\n    /* \"contracts/MyContract.sol\":126:128  10 */\n  0x0a\n    /* \"contracts/MyContract.sol\":85:129  uint[] public numbers = [1,2,3,5,6,7,8,9,10] */\n  0xff\n  and\n  dup2\n  mstore\n  pop\n  0x00\n  swap1\n  0x09\n  tag_1\n  swap3\n  swap2\n  swap1\n  tag_2\n  jump\t// in\ntag_1:\n  pop\n    /* \"contracts/MyContract.sol\":162:210  constructor(){... */\n  callvalue\n  dup1\n  iszero\n  tag_3\n  jumpi\n  revert(0x00, 0x00)\ntag_3:\n  pop\n    /* \"contracts/MyContract.sol\":193:203  msg.sender */\n  caller\n    /* \"contracts/MyContract.sol\":185:190  owner */\n  0x01\n  0x00\n    /* \"contracts/MyContract.sol\":185:203  owner = msg.sender */\n  0x0100\n  exp\n  dup2\n  sload\n  dup2\n  0xffffffffffffffffffffffffffffffffffffffff\n  mul\n  not\n  and\n  swap1\n  dup4\n  0xffffffffffffffffffffffffffffffffffffffff\n  and\n  mul\n  or\n  swap1\n  sstore\n  pop\n    /* \"contracts/MyContract.sol\":59:826  contract MyContract {... */\n  jump(tag_6)\ntag_2:\n  dup3\n  dup1\n  sload\n  dup3\n  dup3\n  sstore\n  swap1\n  0x00\n  mstore\n  keccak256(0x00, 0x20)\n  swap1\n  dup2\n  add\n  swap3\n  dup3\n  iszero\n  tag_7\n  jumpi\n  swap2\n  0x20\n  mul\n  dup3\n  add\ntag_8:\n  dup3\n  dup2\n  gt\n  iszero\n  tag_9\n  jumpi\n  dup3\n  mload\n  dup3\n  swap1\n  0xff\n  and\n  swap1\n  sstore\n  swap2\n  0x20\n  add\n  swap2\n  swap1\n  0x01\n  add\n  swap1\n  jump(tag_8)\ntag_9:\ntag_7:\n  pop\n  swap1\n  pop\n  tag_10\n  swap2\n  swap1\n  tag_11\n  jump\t// in\ntag_10:\n  pop\n  swap1\n  jump\t// out\ntag_11:\ntag_12:\n  dup1\n  dup3\n  gt\n  iszero\n  tag_13\n  jumpi\n  0x00\n  dup2\n  0x00\n  swap1\n  sstore\n  pop\n  0x01\n  add\n  jump(tag_12)\ntag_13:\n  pop\n  swap1\n  jump\t// out\ntag_6:\n  dataSize(sub_0)\n  dup1\n  dataOffset(sub_0)\n  0x00\n  codecopy\n  0x00\n  return\nstop\n\nsub_0: assembly {\n        /* \"contracts/MyContract.sol\":59:826  contract MyContract {... */\n      mstore(0x40, 0x80)\n      callvalue\n      dup1\n      iszero\n      tag_1\n      jumpi\n      revert(0x00, 0x00)\n    tag_1:\n      pop\n      jumpi(tag_2, lt(calldatasize, 0x04))\n      shr(0xe0, calldataload(0x00))\n      dup1\n      0x306d3e02\n      eq\n      tag_3\n      jumpi\n      dup1\n      0x8da5cb5b\n      eq\n      tag_4\n      jumpi\n      dup1\n      0x8f32d59b\n      eq\n      tag_5\n      jumpi\n      dup1\n      0xd39fa233\n      eq\n      tag_6\n      jumpi\n      dup1\n      0xe5054c69\n      eq\n      tag_7\n      jumpi\n      dup1\n      0xfce68023\n      eq\n      tag_8\n      jumpi\n    tag_2:\n      revert(0x00, 0x00)\n        /* \"contracts/MyContract.sol\":216:459  function countEvenNumbers() public view returns (uint){... */\n    tag_3:\n      tag_9\n      tag_10\n      jump\t// in\n    tag_9:\n      mload(0x40)\n      tag_11\n      swap2\n      swap1\n      tag_12\n      jump\t// in\n    tag_11:\n      mload(0x40)\n      dup1\n      swap2\n      sub\n      swap1\n      return\n        /* \"contracts/MyContract.sol\":135:155  address public owner */\n    tag_4:\n      tag_13\n      tag_14\n      jump\t// in\n    tag_13:\n      mload(0x40)\n      tag_15\n      swap2\n      swap1\n      tag_16\n      jump\t// in\n    tag_15:\n      mload(0x40)\n      dup1\n      swap2\n      sub\n      swap1\n      return\n        /* \"contracts/MyContract.sol\":650:740  function isOwner() public view returns (bool)  {... */\n    tag_5:\n      tag_17\n      tag_18\n      jump\t// in\n    tag_17:\n      mload(0x40)\n      tag_19\n      swap2\n      swap1\n      tag_20\n      jump\t// in\n    tag_19:\n      mload(0x40)\n      dup1\n      swap2\n      sub\n      swap1\n      return\n        /* \"contracts/MyContract.sol\":85:129  uint[] public numbers = [1,2,3,5,6,7,8,9,10] */\n    tag_6:\n      tag_21\n      0x04\n      dup1\n      calldatasize\n      sub\n      dup2\n      add\n      swap1\n      tag_22\n      swap2\n      swap1\n      tag_23\n      jump\t// in\n    tag_22:\n      tag_24\n      jump\t// in\n    tag_21:\n      mload(0x40)\n      tag_25\n      swap2\n      swap1\n      tag_12\n      jump\t// in\n    tag_25:\n      mload(0x40)\n      dup1\n      swap2\n      sub\n      swap1\n      return\n        /* \"contracts/MyContract.sol\":465:644  function isEvenNumber(uint _number)public pure returns (bool) {... */\n    tag_7:\n      tag_26\n      0x04\n      dup1\n      calldatasize\n      sub\n      dup2\n      add\n      swap1\n      tag_27\n      swap2\n      swap1\n      tag_23\n      jump\t// in\n    tag_27:\n      tag_28\n      jump\t// in\n    tag_26:\n      mload(0x40)\n      tag_29\n      swap2\n      swap1\n      tag_20\n      jump\t// in\n    tag_29:\n      mload(0x40)\n      dup1\n      swap2\n      sub\n      swap1\n      return\n        /* \"contracts/MyContract.sol\":746:824  function addNumber(uint _number) public {... */\n    tag_8:\n      tag_30\n      0x04\n      dup1\n      calldatasize\n      sub\n      dup2\n      add\n      swap1\n      tag_31\n      swap2\n      swap1\n      tag_23\n      jump\t// in\n    tag_31:\n      tag_32\n      jump\t// in\n    tag_30:\n      stop\n        /* \"contracts/MyContract.sol\":216:459  function countEvenNumbers() public view returns (uint){... */\n    tag_10:\n        /* \"contracts/MyContract.sol\":265:269  uint */\n      0x00\n        /* \"contracts/MyContract.sol\":280:290  uint count */\n      0x00\n        /* \"contracts/MyContract.sol\":293:294  0 */\n      0x00\n        /* \"contracts/MyContract.sol\":280:294  uint count = 0 */\n      swap1\n      pop\n        /* \"contracts/MyContract.sol\":308:314  uint i */\n      0x00\n        /* \"contracts/MyContract.sol\":317:318  0 */\n      0x00\n        /* \"contracts/MyContract.sol\":308:318  uint i = 0 */\n      swap1\n      pop\n        /* \"contracts/MyContract.sol\":304:431  for(uint i = 0; i < numbers.length; i++){... */\n    tag_34:\n        /* \"contracts/MyContract.sol\":324:331  numbers */\n      0x00\n        /* \"contracts/MyContract.sol\":324:338  numbers.length */\n      dup1\n      sload\n      swap1\n      pop\n        /* \"contracts/MyContract.sol\":320:321  i */\n      dup2\n        /* \"contracts/MyContract.sol\":320:338  i < numbers.length */\n      lt\n        /* \"contracts/MyContract.sol\":304:431  for(uint i = 0; i < numbers.length; i++){... */\n      iszero\n      tag_35\n      jumpi\n        /* \"contracts/MyContract.sol\":379:380  0 */\n      0x00\n        /* \"contracts/MyContract.sol\":374:375  2 */\n      0x02\n        /* \"contracts/MyContract.sol\":361:368  numbers */\n      0x00\n        /* \"contracts/MyContract.sol\":369:370  i */\n      dup4\n        /* \"contracts/MyContract.sol\":361:371  numbers[i] */\n      dup2\n      sload\n      dup2\n      lt\n      tag_37\n      jumpi\n      tag_38\n      tag_39\n      jump\t// in\n    tag_38:\n    tag_37:\n      swap1\n      0x00\n      mstore\n      keccak256(0x00, 0x20)\n      add\n      sload\n        /* \"contracts/MyContract.sol\":361:375  numbers[i] % 2 */\n      tag_41\n      swap2\n      swap1\n      tag_42\n      jump\t// in\n    tag_41:\n        /* \"contracts/MyContract.sol\":361:380  numbers[i] % 2 == 0 */\n      sub\n        /* \"contracts/MyContract.sol\":358:421  if(numbers[i] % 2 == 0){... */\n      tag_43\n      jumpi\n        /* \"contracts/MyContract.sol\":399:406  count++ */\n      dup2\n      dup1\n      tag_44\n      swap1\n      tag_45\n      jump\t// in\n    tag_44:\n      swap3\n      pop\n      pop\n        /* \"contracts/MyContract.sol\":358:421  if(numbers[i] % 2 == 0){... */\n    tag_43:\n        /* \"contracts/MyContract.sol\":340:343  i++ */\n      dup1\n      dup1\n      0x01\n      add\n      swap2\n      pop\n      pop\n        /* \"contracts/MyContract.sol\":304:431  for(uint i = 0; i < numbers.length; i++){... */\n      jump(tag_34)\n    tag_35:\n      pop\n        /* \"contracts/MyContract.sol\":447:452  count */\n      dup1\n        /* \"contracts/MyContract.sol\":440:452  return count */\n      swap2\n      pop\n      pop\n        /* \"contracts/MyContract.sol\":216:459  function countEvenNumbers() public view returns (uint){... */\n      swap1\n      jump\t// out\n        /* \"contracts/MyContract.sol\":135:155  address public owner */\n    tag_14:\n      0x01\n      0x00\n      swap1\n      sload\n      swap1\n      0x0100\n      exp\n      swap1\n      div\n      0xffffffffffffffffffffffffffffffffffffffff\n      and\n      dup2\n      jump\t// out\n        /* \"contracts/MyContract.sol\":650:740  function isOwner() public view returns (bool)  {... */\n    tag_18:\n        /* \"contracts/MyContract.sol\":690:694  bool */\n      0x00\n        /* \"contracts/MyContract.sol\":728:733  owner */\n      0x01\n      0x00\n      swap1\n      sload\n      swap1\n      0x0100\n      exp\n      swap1\n      div\n      0xffffffffffffffffffffffffffffffffffffffff\n      and\n        /* \"contracts/MyContract.sol\":714:733  msg.sender == owner */\n      0xffffffffffffffffffffffffffffffffffffffff\n      and\n        /* \"contracts/MyContract.sol\":714:724  msg.sender */\n      caller\n        /* \"contracts/MyContract.sol\":714:733  msg.sender == owner */\n      0xffffffffffffffffffffffffffffffffffffffff\n      and\n      eq\n        /* \"contracts/MyContract.sol\":707:733  return msg.sender == owner */\n      swap1\n      pop\n        /* \"contracts/MyContract.sol\":650:740  function isOwner() public view returns (bool)  {... */\n      swap1\n      jump\t// out\n        /* \"contracts/MyContract.sol\":85:129  uint[] public numbers = [1,2,3,5,6,7,8,9,10] */\n    tag_24:\n      0x00\n      dup2\n      dup2\n      sload\n      dup2\n      lt\n      tag_47\n      jumpi\n      0x00\n      dup1\n      revert\n    tag_47:\n      swap1\n      0x00\n      mstore\n      keccak256(0x00, 0x20)\n      add\n      0x00\n      swap2\n      pop\n      swap1\n      pop\n      sload\n      dup2\n      jump\t// out\n        /* \"contracts/MyContract.sol\":465:644  function isEvenNumber(uint _number)public pure returns (bool) {... */\n    tag_28:\n        /* \"contracts/MyContract.sol\":521:525  bool */\n      0x00\n        /* \"contracts/MyContract.sol\":556:557  0 */\n      0x00\n        /* \"contracts/MyContract.sol\":551:552  2 */\n      0x02\n        /* \"contracts/MyContract.sol\":541:548  _number */\n      dup4\n        /* \"contracts/MyContract.sol\":541:552  _number % 2 */\n      tag_50\n      swap2\n      swap1\n      tag_42\n      jump\t// in\n    tag_50:\n        /* \"contracts/MyContract.sol\":541:557  _number % 2 == 0 */\n      sub\n        /* \"contracts/MyContract.sol\":537:638  if (_number % 2 == 0) {... */\n      tag_51\n      jumpi\n        /* \"contracts/MyContract.sol\":580:584  true */\n      0x01\n        /* \"contracts/MyContract.sol\":573:584  return true */\n      swap1\n      pop\n      jump(tag_49)\n        /* \"contracts/MyContract.sol\":537:638  if (_number % 2 == 0) {... */\n    tag_51:\n        /* \"contracts/MyContract.sol\":622:627  false */\n      0x00\n        /* \"contracts/MyContract.sol\":614:627  return  false */\n      swap1\n      pop\n        /* \"contracts/MyContract.sol\":465:644  function isEvenNumber(uint _number)public pure returns (bool) {... */\n    tag_49:\n      swap2\n      swap1\n      pop\n      jump\t// out\n        /* \"contracts/MyContract.sol\":746:824  function addNumber(uint _number) public {... */\n    tag_32:\n        /* \"contracts/MyContract.sol\":796:803  numbers */\n      0x00\n        /* \"contracts/MyContract.sol\":809:816  _number */\n      dup2\n        /* \"contracts/MyContract.sol\":796:817  numbers.push(_number) */\n      swap1\n      dup1\n      0x01\n      dup2\n      sload\n      add\n      dup1\n      dup3\n      sstore\n      dup1\n      swap2\n      pop\n      pop\n      0x01\n      swap1\n      sub\n      swap1\n      0x00\n      mstore\n      keccak256(0x00, 0x20)\n      add\n      0x00\n      swap1\n      swap2\n      swap1\n      swap2\n      swap1\n      swap2\n      pop\n      sstore\n        /* \"contracts/MyContract.sol\":746:824  function addNumber(uint _number) public {... */\n      pop\n      jump\t// out\n        /* \"#utility.yul\":7:84   */\n    tag_55:\n        /* \"#utility.yul\":44:51   */\n      0x00\n        /* \"#utility.yul\":73:78   */\n      dup2\n        /* \"#utility.yul\":62:78   */\n      swap1\n      pop\n        /* \"#utility.yul\":7:84   */\n      swap2\n      swap1\n      pop\n      jump\t// out\n        /* \"#utility.yul\":90:208   */\n    tag_56:\n        /* \"#utility.yul\":177:201   */\n      tag_72\n        /* \"#utility.yul\":195:200   */\n      dup2\n        /* \"#utility.yul\":177:201   */\n      tag_55\n      jump\t// in\n    tag_72:\n        /* \"#utility.yul\":172:175   */\n      dup3\n        /* \"#utility.yul\":165:202   */\n      mstore\n        /* \"#utility.yul\":90:208   */\n      pop\n      pop\n      jump\t// out\n        /* \"#utility.yul\":214:436   */\n    tag_12:\n        /* \"#utility.yul\":307:311   */\n      0x00\n        /* \"#utility.yul\":345:347   */\n      0x20\n        /* \"#utility.yul\":334:343   */\n      dup3\n        /* \"#utility.yul\":330:348   */\n      add\n        /* \"#utility.yul\":322:348   */\n      swap1\n      pop\n        /* \"#utility.yul\":358:429   */\n      tag_74\n        /* \"#utility.yul\":426:427   */\n      0x00\n        /* \"#utility.yul\":415:424   */\n      dup4\n        /* \"#utility.yul\":411:428   */\n      add\n        /* \"#utility.yul\":402:408   */\n      dup5\n        /* \"#utility.yul\":358:429   */\n      tag_56\n      jump\t// in\n    tag_74:\n        /* \"#utility.yul\":214:436   */\n      swap3\n      swap2\n      pop\n      pop\n      jump\t// out\n        /* \"#utility.yul\":442:568   */\n    tag_57:\n        /* \"#utility.yul\":479:486   */\n      0x00\n        /* \"#utility.yul\":519:561   */\n      0xffffffffffffffffffffffffffffffffffffffff\n        /* \"#utility.yul\":512:517   */\n      dup3\n        /* \"#utility.yul\":508:562   */\n      and\n        /* \"#utility.yul\":497:562   */\n      swap1\n      pop\n        /* \"#utility.yul\":442:568   */\n      swap2\n      swap1\n      pop\n      jump\t// out\n        /* \"#utility.yul\":574:670   */\n    tag_58:\n        /* \"#utility.yul\":611:618   */\n      0x00\n        /* \"#utility.yul\":640:664   */\n      tag_77\n        /* \"#utility.yul\":658:663   */\n      dup3\n        /* \"#utility.yul\":640:664   */\n      tag_57\n      jump\t// in\n    tag_77:\n        /* \"#utility.yul\":629:664   */\n      swap1\n      pop\n        /* \"#utility.yul\":574:670   */\n      swap2\n      swap1\n      pop\n      jump\t// out\n        /* \"#utility.yul\":676:794   */\n    tag_59:\n        /* \"#utility.yul\":763:787   */\n      tag_79\n        /* \"#utility.yul\":781:786   */\n      dup2\n        /* \"#utility.yul\":763:787   */\n      tag_58\n      jump\t// in\n    tag_79:\n        /* \"#utility.yul\":758:761   */\n      dup3\n        /* \"#utility.yul\":751:788   */\n      mstore\n        /* \"#utility.yul\":676:794   */\n      pop\n      pop\n      jump\t// out\n        /* \"#utility.yul\":800:1022   */\n    tag_16:\n        /* \"#utility.yul\":893:897   */\n      0x00\n        /* \"#utility.yul\":931:933   */\n      0x20\n        /* \"#utility.yul\":920:929   */\n      dup3\n        /* \"#utility.yul\":916:934   */\n      add\n        /* \"#utility.yul\":908:934   */\n      swap1\n      pop\n        /* \"#utility.yul\":944:1015   */\n      tag_81\n        /* \"#utility.yul\":1012:1013   */\n      0x00\n        /* \"#utility.yul\":1001:1010   */\n      dup4\n        /* \"#utility.yul\":997:1014   */\n      add\n        /* \"#utility.yul\":988:994   */\n      dup5\n        /* \"#utility.yul\":944:1015   */\n      tag_59\n      jump\t// in\n    tag_81:\n        /* \"#utility.yul\":800:1022   */\n      swap3\n      swap2\n      pop\n      pop\n      jump\t// out\n        /* \"#utility.yul\":1028:1118   */\n    tag_60:\n        /* \"#utility.yul\":1062:1069   */\n      0x00\n        /* \"#utility.yul\":1105:1110   */\n      dup2\n        /* \"#utility.yul\":1098:1111   */\n      iszero\n        /* \"#utility.yul\":1091:1112   */\n      iszero\n        /* \"#utility.yul\":1080:1112   */\n      swap1\n      pop\n        /* \"#utility.yul\":1028:1118   */\n      swap2\n      swap1\n      pop\n      jump\t// out\n        /* \"#utility.yul\":1124:1233   */\n    tag_61:\n        /* \"#utility.yul\":1205:1226   */\n      tag_84\n        /* \"#utility.yul\":1220:1225   */\n      dup2\n        /* \"#utility.yul\":1205:1226   */\n      tag_60\n      jump\t// in\n    tag_84:\n        /* \"#utility.yul\":1200:1203   */\n      dup3\n        /* \"#utility.yul\":1193:1227   */\n      mstore\n        /* \"#utility.yul\":1124:1233   */\n      pop\n      pop\n      jump\t// out\n        /* \"#utility.yul\":1239:1449   */\n    tag_20:\n        /* \"#utility.yul\":1326:1330   */\n      0x00\n        /* \"#utility.yul\":1364:1366   */\n      0x20\n        /* \"#utility.yul\":1353:1362   */\n      dup3\n        /* \"#utility.yul\":1349:1367   */\n      add\n        /* \"#utility.yul\":1341:1367   */\n      swap1\n      pop\n        /* \"#utility.yul\":1377:1442   */\n      tag_86\n        /* \"#utility.yul\":1439:1440   */\n      0x00\n        /* \"#utility.yul\":1428:1437   */\n      dup4\n        /* \"#utility.yul\":1424:1441   */\n      add\n        /* \"#utility.yul\":1415:1421   */\n      dup5\n        /* \"#utility.yul\":1377:1442   */\n      tag_61\n      jump\t// in\n    tag_86:\n        /* \"#utility.yul\":1239:1449   */\n      swap3\n      swap2\n      pop\n      pop\n      jump\t// out\n        /* \"#utility.yul\":1536:1653   */\n    tag_63:\n        /* \"#utility.yul\":1645:1646   */\n      0x00\n        /* \"#utility.yul\":1642:1643   */\n      0x00\n        /* \"#utility.yul\":1635:1647   */\n      revert\n        /* \"#utility.yul\":1782:1904   */\n    tag_65:\n        /* \"#utility.yul\":1855:1879   */\n      tag_91\n        /* \"#utility.yul\":1873:1878   */\n      dup2\n        /* \"#utility.yul\":1855:1879   */\n      tag_55\n      jump\t// in\n    tag_91:\n        /* \"#utility.yul\":1848:1853   */\n      dup2\n        /* \"#utility.yul\":1845:1880   */\n      eq\n        /* \"#utility.yul\":1835:1898   */\n      tag_92\n      jumpi\n        /* \"#utility.yul\":1894:1895   */\n      0x00\n        /* \"#utility.yul\":1891:1892   */\n      0x00\n        /* \"#utility.yul\":1884:1896   */\n      revert\n        /* \"#utility.yul\":1835:1898   */\n    tag_92:\n        /* \"#utility.yul\":1782:1904   */\n      pop\n      jump\t// out\n        /* \"#utility.yul\":1910:2049   */\n    tag_66:\n        /* \"#utility.yul\":1956:1961   */\n      0x00\n        /* \"#utility.yul\":1994:2000   */\n      dup2\n        /* \"#utility.yul\":1981:2001   */\n      calldataload\n        /* \"#utility.yul\":1972:2001   */\n      swap1\n      pop\n        /* \"#utility.yul\":2010:2043   */\n      tag_94\n        /* \"#utility.yul\":2037:2042   */\n      dup2\n        /* \"#utility.yul\":2010:2043   */\n      tag_65\n      jump\t// in\n    tag_94:\n        /* \"#utility.yul\":1910:2049   */\n      swap3\n      swap2\n      pop\n      pop\n      jump\t// out\n        /* \"#utility.yul\":2055:2384   */\n    tag_23:\n        /* \"#utility.yul\":2114:2120   */\n      0x00\n        /* \"#utility.yul\":2163:2165   */\n      0x20\n        /* \"#utility.yul\":2151:2160   */\n      dup3\n        /* \"#utility.yul\":2142:2149   */\n      dup5\n        /* \"#utility.yul\":2138:2161   */\n      sub\n        /* \"#utility.yul\":2134:2166   */\n      slt\n        /* \"#utility.yul\":2131:2250   */\n      iszero\n      tag_96\n      jumpi\n        /* \"#utility.yul\":2169:2248   */\n      tag_97\n      tag_63\n      jump\t// in\n    tag_97:\n        /* \"#utility.yul\":2131:2250   */\n    tag_96:\n        /* \"#utility.yul\":2289:2290   */\n      0x00\n        /* \"#utility.yul\":2314:2367   */\n      tag_98\n        /* \"#utility.yul\":2359:2366   */\n      dup5\n        /* \"#utility.yul\":2350:2356   */\n      dup3\n        /* \"#utility.yul\":2339:2348   */\n      dup6\n        /* \"#utility.yul\":2335:2357   */\n      add\n        /* \"#utility.yul\":2314:2367   */\n      tag_66\n      jump\t// in\n    tag_98:\n        /* \"#utility.yul\":2304:2367   */\n      swap2\n      pop\n        /* \"#utility.yul\":2260:2377   */\n      pop\n        /* \"#utility.yul\":2055:2384   */\n      swap3\n      swap2\n      pop\n      pop\n      jump\t// out\n        /* \"#utility.yul\":2390:2570   */\n    tag_39:\n        /* \"#utility.yul\":2438:2515   */\n      0x4e487b7100000000000000000000000000000000000000000000000000000000\n        /* \"#utility.yul\":2435:2436   */\n      0x00\n        /* \"#utility.yul\":2428:2516   */\n      mstore\n        /* \"#utility.yul\":2535:2539   */\n      0x32\n        /* \"#utility.yul\":2532:2533   */\n      0x04\n        /* \"#utility.yul\":2525:2540   */\n      mstore\n        /* \"#utility.yul\":2559:2563   */\n      0x24\n        /* \"#utility.yul\":2556:2557   */\n      0x00\n        /* \"#utility.yul\":2549:2564   */\n      revert\n        /* \"#utility.yul\":2576:2756   */\n    tag_67:\n        /* \"#utility.yul\":2624:2701   */\n      0x4e487b7100000000000000000000000000000000000000000000000000000000\n        /* \"#utility.yul\":2621:2622   */\n      0x00\n        /* \"#utility.yul\":2614:2702   */\n      mstore\n        /* \"#utility.yul\":2721:2725   */\n      0x12\n        /* \"#utility.yul\":2718:2719   */\n      0x04\n        /* \"#utility.yul\":2711:2726   */\n      mstore\n        /* \"#utility.yul\":2745:2749   */\n      0x24\n        /* \"#utility.yul\":2742:2743   */\n      0x00\n        /* \"#utility.yul\":2735:2750   */\n      revert\n        /* \"#utility.yul\":2762:2938   */\n    tag_42:\n        /* \"#utility.yul\":2794:2795   */\n      0x00\n        /* \"#utility.yul\":2811:2831   */\n      tag_102\n        /* \"#utility.yul\":2829:2830   */\n      dup3\n        /* \"#utility.yul\":2811:2831   */\n      tag_55\n      jump\t// in\n    tag_102:\n        /* \"#utility.yul\":2806:2831   */\n      swap2\n      pop\n        /* \"#utility.yul\":2845:2865   */\n      tag_103\n        /* \"#utility.yul\":2863:2864   */\n      dup4\n        /* \"#utility.yul\":2845:2865   */\n      tag_55\n      jump\t// in\n    tag_103:\n        /* \"#utility.yul\":2840:2865   */\n      swap3\n      pop\n        /* \"#utility.yul\":2884:2885   */\n      dup3\n        /* \"#utility.yul\":2874:2909   */\n      tag_104\n      jumpi\n        /* \"#utility.yul\":2889:2907   */\n      tag_105\n      tag_67\n      jump\t// in\n    tag_105:\n        /* \"#utility.yul\":2874:2909   */\n    tag_104:\n        /* \"#utility.yul\":2930:2931   */\n      dup3\n        /* \"#utility.yul\":2927:2928   */\n      dup3\n        /* \"#utility.yul\":2923:2932   */\n      mod\n        /* \"#utility.yul\":2918:2932   */\n      swap1\n      pop\n        /* \"#utility.yul\":2762:2938   */\n      swap3\n      swap2\n      pop\n      pop\n      jump\t// out\n        /* \"#utility.yul\":2944:3124   */\n    tag_68:\n        /* \"#utility.yul\":2992:3069   */\n      0x4e487b7100000000000000000000000000000000000000000000000000000000\n        /* \"#utility.yul\":2989:2990   */\n      0x00\n        /* \"#utility.yul\":2982:3070   */\n      mstore\n        /* \"#utility.yul\":3089:3093   */\n      0x11\n        /* \"#utility.yul\":3086:3087   */\n      0x04\n        /* \"#utility.yul\":3079:3094   */\n      mstore\n        /* \"#utility.yul\":3113:3117   */\n      0x24\n        /* \"#utility.yul\":3110:3111   */\n      0x00\n        /* \"#utility.yul\":3103:3118   */\n      revert\n        /* \"#utility.yul\":3130:3363   */\n    tag_45:\n        /* \"#utility.yul\":3169:3172   */\n      0x00\n        /* \"#utility.yul\":3192:3216   */\n      tag_108\n        /* \"#utility.yul\":3210:3215   */\n      dup3\n        /* \"#utility.yul\":3192:3216   */\n      tag_55\n      jump\t// in\n    tag_108:\n        /* \"#utility.yul\":3183:3216   */\n      swap2\n      pop\n        /* \"#utility.yul\":3238:3304   */\n      0xffffffffffffffffffffffffffffffffffffffffffffffffffffffffffffffff\n        /* \"#utility.yul\":3231:3236   */\n      dup3\n        /* \"#utility.yul\":3228:3305   */\n      sub\n        /* \"#utility.yul\":3225:3328   */\n      tag_109\n      jumpi\n        /* \"#utility.yul\":3308:3326   */\n      tag_110\n      tag_68\n      jump\t// in\n    tag_110:\n        /* \"#utility.yul\":3225:3328   */\n    tag_109:\n        /* \"#utility.yul\":3355:3356   */\n      0x01\n        /* \"#utility.yul\":3348:3353   */\n      dup3\n        /* \"#utility.yul\":3344:3357   */\n      add\n        /* \"#utility.yul\":3337:3357   */\n      swap1\n      pop\n        /* \"#utility.yul\":3130:3363   */\n      swap2\n      swap1\n      pop\n      jump\t// out\n\n    auxdata: 0xa264697066735822122054376ae4a580303c2ecc1713c261d1276d6ec55d9745232e399b296d85914f5a64736f6c634300081e0033\n}\n",
				"bytecode": {
					"linkReferences": {},
					"object": "6080604052604051806101200160405280600160ff168152602001600260ff168152602001600360ff168152602001600560ff168152602001600660ff168152602001600760ff168152602001600860ff168152602001600960ff168152602001600a60ff168152505f9060096100779291906100c9565b50348015610083575f5ffd5b503360015f6101000a81548173ffffffffffffffffffffffffffffffffffffffff021916908373ffffffffffffffffffffffffffffffffffffffff160217905550610134565b828054828255905f5260205f20908101928215610108579160200282015b82811115610107578251829060ff169055916020019190600101906100e7565b5b5090506101159190610119565b5090565b5b80821115610130575f815f90555060010161011a565b5090565b6104d3806101415f395ff3fe608060405234801561000f575f5ffd5b5060043610610060575f3560e01c8063306d3e02146100645780638da5cb5b146100825780638f32d59b146100a0578063d39fa233146100be578063e5054c69146100ee578063fce680231461011e575b5f5ffd5b61006c61013a565b60405161007991906102a2565b60405180910390f35b61008a6101a2565b60405161009791906102fa565b60405180910390f35b6100a86101c7565b6040516100b5919061032d565b60405180910390f35b6100d860048036038101906100d39190610374565b61021d565b6040516100e591906102a2565b60405180910390f35b61010860048036038101906101039190610374565b61023c565b604051610115919061032d565b60405180910390f35b61013860048036038101906101339190610374565b610262565b005b5f5f5f90505f5f90505b5f8054905081101561019a575f60025f83815481106101665761016561039f565b5b905f5260205f20015461017991906103f9565b0361018d57818061018990610456565b9250505b8080600101915050610144565b508091505090565b60015f9054906101000a900473ffffffffffffffffffffffffffffffffffffffff1681565b5f60015f9054906101000a900473ffffffffffffffffffffffffffffffffffffffff1673ffffffffffffffffffffffffffffffffffffffff163373ffffffffffffffffffffffffffffffffffffffff1614905090565b5f818154811061022b575f80fd5b905f5260205f20015f915090505481565b5f5f60028361024b91906103f9565b03610259576001905061025d565b5f90505b919050565b5f81908060018154018082558091505060019003905f5260205f20015f909190919091505550565b5f819050919050565b61029c8161028a565b82525050565b5f6020820190506102b55f830184610293565b92915050565b5f73ffffffffffffffffffffffffffffffffffffffff82169050919050565b5f6102e4826102bb565b9050919050565b6102f4816102da565b82525050565b5f60208201905061030d5f8301846102eb565b92915050565b5f8115159050919050565b61032781610313565b82525050565b5f6020820190506103405f83018461031e565b92915050565b5f5ffd5b6103538161028a565b811461035d575f5ffd5b50565b5f8135905061036e8161034a565b92915050565b5f6020828403121561038957610388610346565b5b5f61039684828501610360565b91505092915050565b7f4e487b71000000000000000000000000000000000000000000000000000000005f52603260045260245ffd5b7f4e487b71000000000000000000000000000000000000000000000000000000005f52601260045260245ffd5b5f6104038261028a565b915061040e8361028a565b92508261041e5761041d6103cc565b5b828206905092915050565b7f4e487b71000000000000000000000000000000000000000000000000000000005f52601160045260245ffd5b5f6104608261028a565b91507fffffffffffffffffffffffffffffffffffffffffffffffffffffffffffffffff820361049257610491610429565b5b60018201905091905056fea264697066735822122054376ae4a580303c2ecc1713c261d1276d6ec55d9745232e399b296d85914f5a64736f6c634300081e0033",
					"opcodes": "PUSH1 0x80 PUSH1 0x40 MSTORE PUSH1 0x40 MLOAD DUP1 PUSH2 0x120 ADD PUSH1 0x40 MSTORE DUP1 PUSH1 0x1 PUSH1 0xFF AND DUP2 MSTORE PUSH1 0x20 ADD PUSH1 0x2 PUSH1 0xFF AND DUP2 MSTORE PUSH1 0x20 ADD PUSH1 0x3 PUSH1 0xFF AND DUP2 MSTORE PUSH1 0x20 ADD PUSH1 0x5 PUSH1 0xFF AND DUP2 MSTORE PUSH1 0x20 ADD PUSH1 0x6 PUSH1 0xFF AND DUP2 MSTORE PUSH1 0x20 ADD PUSH1 0x7 PUSH1 0xFF AND DUP2 MSTORE PUSH1 0x20 ADD PUSH1 0x8 PUSH1 0xFF AND DUP2 MSTORE PUSH1 0x20 ADD PUSH1 0x9 PUSH1 0xFF AND DUP2 MSTORE PUSH1 0x20 ADD PUSH1 0xA PUSH1 0xFF AND DUP2 MSTORE POP PUSH0 SWAP1 PUSH1 0x9 PUSH2 0x77 SWAP3 SWAP2 SWAP1 PUSH2 0xC9 JUMP JUMPDEST POP CALLVALUE DUP1 ISZERO PUSH2 0x83 JUMPI PUSH0 PUSH0 REVERT JUMPDEST POP CALLER PUSH1 0x1 PUSH0 PUSH2 0x100 EXP DUP2 SLOAD DUP2 PUSH20 0xFFFFFFFFFFFFFFFFFFFFFFFFFFFFFFFFFFFFFFFF MUL NOT AND SWAP1 DUP4 PUSH20 0xFFFFFFFFFFFFFFFFFFFFFFFFFFFFFFFFFFFFFFFF AND MUL OR SWAP1 SSTORE POP PUSH2 0x134 JUMP JUMPDEST DUP3 DUP1 SLOAD DUP3 DUP3 SSTORE SWAP1 PUSH0 MSTORE PUSH1 0x20 PUSH0 KECCAK256 SWAP1 DUP2 ADD SWAP3 DUP3 ISZERO PUSH2 0x108 JUMPI SWAP2 PUSH1 0x20 MUL DUP3 ADD JUMPDEST DUP3 DUP2 GT ISZERO PUSH2 0x107 JUMPI DUP3 MLOAD DUP3 SWAP1 PUSH1 0xFF AND SWAP1 SSTORE SWAP2 PUSH1 0x20 ADD SWAP2 SWAP1 PUSH1 0x1 ADD SWAP1 PUSH2 0xE7 JUMP JUMPDEST JUMPDEST POP SWAP1 POP PUSH2 0x115 SWAP2 SWAP1 PUSH2 0x119 JUMP JUMPDEST POP SWAP1 JUMP JUMPDEST JUMPDEST DUP1 DUP3 GT ISZERO PUSH2 0x130 JUMPI PUSH0 DUP2 PUSH0 SWAP1 SSTORE POP PUSH1 0x1 ADD PUSH2 0x11A JUMP JUMPDEST POP SWAP1 JUMP JUMPDEST PUSH2 0x4D3 DUP1 PUSH2 0x141 PUSH0 CODECOPY PUSH0 RETURN INVALID PUSH1 0x80 PUSH1 0x40 MSTORE CALLVALUE DUP1 ISZERO PUSH2 0xF JUMPI PUSH0 PUSH0 REVERT JUMPDEST POP PUSH1 0x4 CALLDATASIZE LT PUSH2 0x60 JUMPI PUSH0 CALLDATALOAD PUSH1 0xE0 SHR DUP1 PUSH4 0x306D3E02 EQ PUSH2 0x64 JUMPI DUP1 PUSH4 0x8DA5CB5B EQ PUSH2 0x82 JUMPI DUP1 PUSH4 0x8F32D59B EQ PUSH2 0xA0 JUMPI DUP1 PUSH4 0xD39FA233 EQ PUSH2 0xBE JUMPI DUP1 PUSH4 0xE5054C69 EQ PUSH2 0xEE JUMPI DUP1 PUSH4 0xFCE68023 EQ PUSH2 0x11E JUMPI JUMPDEST PUSH0 PUSH0 REVERT JUMPDEST PUSH2 0x6C PUSH2 0x13A JUMP JUMPDEST PUSH1 0x40 MLOAD PUSH2 0x79 SWAP2 SWAP1 PUSH2 0x2A2 JUMP JUMPDEST PUSH1 0x40 MLOAD DUP1 SWAP2 SUB SWAP1 RETURN JUMPDEST PUSH2 0x8A PUSH2 0x1A2 JUMP JUMPDEST PUSH1 0x40 MLOAD PUSH2 0x97 SWAP2 SWAP1 PUSH2 0x2FA JUMP JUMPDEST PUSH1 0x40 MLOAD DUP1 SWAP2 SUB SWAP1 RETURN JUMPDEST PUSH2 0xA8 PUSH2 0x1C7 JUMP JUMPDEST PUSH1 0x40 MLOAD PUSH2 0xB5 SWAP2 SWAP1 PUSH2 0x32D JUMP JUMPDEST PUSH1 0x40 MLOAD DUP1 SWAP2 SUB SWAP1 RETURN JUMPDEST PUSH2 0xD8 PUSH1 0x4 DUP1 CALLDATASIZE SUB DUP2 ADD SWAP1 PUSH2 0xD3 SWAP2 SWAP1 PUSH2 0x374 JUMP JUMPDEST PUSH2 0x21D JUMP JUMPDEST PUSH1 0x40 MLOAD PUSH2 0xE5 SWAP2 SWAP1 PUSH2 0x2A2 JUMP JUMPDEST PUSH1 0x40 MLOAD DUP1 SWAP2 SUB SWAP1 RETURN JUMPDEST PUSH2 0x108 PUSH1 0x4 DUP1 CALLDATASIZE SUB DUP2 ADD SWAP1 PUSH2 0x103 SWAP2 SWAP1 PUSH2 0x374 JUMP JUMPDEST PUSH2 0x23C JUMP JUMPDEST PUSH1 0x40 MLOAD PUSH2 0x115 SWAP2 SWAP1 PUSH2 0x32D JUMP JUMPDEST PUSH1 0x40 MLOAD DUP1 SWAP2 SUB SWAP1 RETURN JUMPDEST PUSH2 0x138 PUSH1 0x4 DUP1 CALLDATASIZE SUB DUP2 ADD SWAP1 PUSH2 0x133 SWAP2 SWAP1 PUSH2 0x374 JUMP JUMPDEST PUSH2 0x262 JUMP JUMPDEST STOP JUMPDEST PUSH0 PUSH0 PUSH0 SWAP1 POP PUSH0 PUSH0 SWAP1 POP JUMPDEST PUSH0 DUP1 SLOAD SWAP1 POP DUP2 LT ISZERO PUSH2 0x19A JUMPI PUSH0 PUSH1 0x2 PUSH0 DUP4 DUP2 SLOAD DUP2 LT PUSH2 0x166 JUMPI PUSH2 0x165 PUSH2 0x39F JUMP JUMPDEST JUMPDEST SWAP1 PUSH0 MSTORE PUSH1 0x20 PUSH0 KECCAK256 ADD SLOAD PUSH2 0x179 SWAP2 SWAP1 PUSH2 0x3F9 JUMP JUMPDEST SUB PUSH2 0x18D JUMPI DUP2 DUP1 PUSH2 0x189 SWAP1 PUSH2 0x456 JUMP JUMPDEST SWAP3 POP POP JUMPDEST DUP1 DUP1 PUSH1 0x1 ADD SWAP2 POP POP PUSH2 0x144 JUMP JUMPDEST POP DUP1 SWAP2 POP POP SWAP1 JUMP JUMPDEST PUSH1 0x1 PUSH0 SWAP1 SLOAD SWAP1 PUSH2 0x100 EXP SWAP1 DIV PUSH20 0xFFFFFFFFFFFFFFFFFFFFFFFFFFFFFFFFFFFFFFFF AND DUP2 JUMP JUMPDEST PUSH0 PUSH1 0x1 PUSH0 SWAP1 SLOAD SWAP1 PUSH2 0x100 EXP SWAP1 DIV PUSH20 0xFFFFFFFFFFFFFFFFFFFFFFFFFFFFFFFFFFFFFFFF AND PUSH20 0xFFFFFFFFFFFFFFFFFFFFFFFFFFFFFFFFFFFFFFFF AND CALLER PUSH20 0xFFFFFFFFFFFFFFFFFFFFFFFFFFFFFFFFFFFFFFFF AND EQ SWAP1 POP SWAP1 JUMP JUMPDEST PUSH0 DUP2 DUP2 SLOAD DUP2 LT PUSH2 0x22B JUMPI PUSH0 DUP1 REVERT JUMPDEST SWAP1 PUSH0 MSTORE PUSH1 0x20 PUSH0 KECCAK256 ADD PUSH0 SWAP2 POP SWAP1 POP SLOAD DUP2 JUMP JUMPDEST PUSH0 PUSH0 PUSH1 0x2 DUP4 PUSH2 0x24B SWAP2 SWAP1 PUSH2 0x3F9 JUMP JUMPDEST SUB PUSH2 0x259 JUMPI PUSH1 0x1 SWAP1 POP PUSH2 0x25D JUMP JUMPDEST PUSH0 SWAP1 POP JUMPDEST SWAP2 SWAP1 POP JUMP JUMPDEST PUSH0 DUP2 SWAP1 DUP1 PUSH1 0x1 DUP2 SLOAD ADD DUP1 DUP3 SSTORE DUP1 SWAP2 POP POP PUSH1 0x1 SWAP1 SUB SWAP1 PUSH0 MSTORE PUSH1 0x20 PUSH0 KECCAK256 ADD PUSH0 SWAP1 SWAP2 SWAP1 SWAP2 SWAP1 SWAP2 POP SSTORE POP JUMP JUMPDEST PUSH0 DUP2 SWAP1 POP SWAP2 SWAP1 POP JUMP JUMPDEST PUSH2 0x29C DUP2 PUSH2 0x28A JUMP JUMPDEST DUP3 MSTORE POP POP JUMP JUMPDEST PUSH0 PUSH1 0x20 DUP3 ADD SWAP1 POP PUSH2 0x2B5 PUSH0 DUP4 ADD DUP5 PUSH2 0x293 JUMP JUMPDEST SWAP3 SWAP2 POP POP JUMP JUMPDEST PUSH0 PUSH20 0xFFFFFFFFFFFFFFFFFFFFFFFFFFFFFFFFFFFFFFFF DUP3 AND SWAP1 POP SWAP2 SWAP1 POP JUMP JUMPDEST PUSH0 PUSH2 0x2E4 DUP3 PUSH2 0x2BB JUMP JUMPDEST SWAP1 POP SWAP2 SWAP1 POP JUMP JUMPDEST PUSH2 0x2F4 DUP2 PUSH2 0x2DA JUMP JUMPDEST DUP3 MSTORE POP POP JUMP JUMPDEST PUSH0 PUSH1 0x20 DUP3 ADD SWAP1 POP PUSH2 0x30D PUSH0 DUP4 ADD DUP5 PUSH2 0x2EB JUMP JUMPDEST SWAP3 SWAP2 POP POP JUMP JUMPDEST PUSH0 DUP2 ISZERO ISZERO SWAP1 POP SWAP2 SWAP1 POP JUMP JUMPDEST PUSH2 0x327 DUP2 PUSH2 0x313 JUMP JUMPDEST DUP3 MSTORE POP POP JUMP JUMPDEST PUSH0 PUSH1 0x20 DUP3 ADD SWAP1 POP PUSH2 0x340 PUSH0 DUP4 ADD DUP5 PUSH2 0x31E JUMP JUMPDEST SWAP3 SWAP2 POP POP JUMP JUMPDEST PUSH0 PUSH0 REVERT JUMPDEST PUSH2 0x353 DUP2 PUSH2 0x28A JUMP JUMPDEST DUP2 EQ PUSH2 0x35D JUMPI PUSH0 PUSH0 REVERT JUMPDEST POP JUMP JUMPDEST PUSH0 DUP2 CALLDATALOAD SWAP1 POP PUSH2 0x36E DUP2 PUSH2 0x34A JUMP JUMPDEST SWAP3 SWAP2 POP POP JUMP JUMPDEST PUSH0 PUSH1 0x20 DUP3 DUP5 SUB SLT ISZERO PUSH2 0x389 JUMPI PUSH2 0x388 PUSH2 0x346 JUMP JUMPDEST JUMPDEST PUSH0 PUSH2 0x396 DUP5 DUP3 DUP6 ADD PUSH2 0x360 JUMP JUMPDEST SWAP2 POP POP SWAP3 SWAP2 POP POP JUMP JUMPDEST PUSH32 0x4E487B7100000000000000000000000000000000000000000000000000000000 PUSH0 MSTORE PUSH1 0x32 PUSH1 0x4 MSTORE PUSH1 0x24 PUSH0 REVERT JUMPDEST PUSH32 0x4E487B7100000000000000000000000000000000000000000000000000000000 PUSH0 MSTORE PUSH1 0x12 PUSH1 0x4 MSTORE PUSH1 0x24 PUSH0 REVERT JUMPDEST PUSH0 PUSH2 0x403 DUP3 PUSH2 0x28A JUMP JUMPDEST SWAP2 POP PUSH2 0x40E DUP4 PUSH2 0x28A JUMP JUMPDEST SWAP3 POP DUP3 PUSH2 0x41E JUMPI PUSH2 0x41D PUSH2 0x3CC JUMP JUMPDEST JUMPDEST DUP3 DUP3 MOD SWAP1 POP SWAP3 SWAP2 POP POP JUMP JUMPDEST PUSH32 0x4E487B7100000000000000000000000000000000000000000000000000000000 PUSH0 MSTORE PUSH1 0x11 PUSH1 0x4 MSTORE PUSH1 0x24 PUSH0 REVERT JUMPDEST PUSH0 PUSH2 0x460 DUP3 PUSH2 0x28A JUMP JUMPDEST SWAP2 POP PUSH32 0xFFFFFFFFFFFFFFFFFFFFFFFFFFFFFFFFFFFFFFFFFFFFFFFFFFFFFFFFFFFFFFFF DUP3 SUB PUSH2 0x492 JUMPI PUSH2 0x491 PUSH2 0x429 JUMP JUMPDEST JUMPDEST PUSH1 0x1 DUP3 ADD SWAP1 POP SWAP2 SWAP1 POP JUMP INVALID LOG2 PUSH5 0x6970667358 0x22 SLT KECCAK256 SLOAD CALLDATACOPY PUSH11 0xE4A580303C2ECC1713C261 DATALOADN 0x276D PUSH15 0xC55D9745232E399B296D85914F5A64 PUSH20 0x6F6C634300081E00330000000000000000000000 "
				},
				"gasEstimates": {
					"creation": {
						"codeDepositCost": "247000",
						"executionCost": "infinite",
						"totalCost": "infinite"
					},
					"external": {
						"addNumber(uint256)": "46908",
						"countEvenNumbers()": "infinite",
						"isEvenNumber(uint256)": "infinite",
						"isOwner()": "2512",
						"numbers(uint256)": "infinite",
						"owner()": "2508"
					}
				},
				"methodIdentifiers": {
					"addNumber(uint256)": "fce68023",
					"countEvenNumbers()": "306d3e02",
					"isEvenNumber(uint256)": "e5054c69",
					"isOwner()": "8f32d59b",
					"numbers(uint256)": "d39fa233",
					"owner()": "8da5cb5b"
				}
			},
			"storageLayout": {
				"storage": [
					{
						"astId": 14,
						"contract": "contracts/MyContract.sol:MyContract",
						"label": "numbers",
						"offset": 0,
						"slot": "0",
						"type": "t_array(t_uint256)dyn_storage"
					},
					{
						"astId": 16,
						"contract": "contracts/MyContract.sol:MyContract",
						"label": "owner",
						"offset": 0,
						"slot": "1",
						"type": "t_address"
					}
				],
				"types": {
					"t_address": {
						"encoding": "inplace",
						"label": "address",
						"numberOfBytes": "20"
					},
					"t_array(t_uint256)dyn_storage": {
						"base": "t_uint256",
						"encoding": "dynamic_array",
						"label": "uint256[]",
						"numberOfBytes": "32"
					},
					"t_uint256": {
						"encoding": "inplace",
						"label": "uint256",
						"numberOfBytes": "32"
					}
				}
			},
			"userdoc": {
				"kind": "user",
				"methods": {},
				"version": 1
			}
		}
	}
}